:0400000019EF03F001
:1000080004EF04F0266EA4A8FED726C079FF1200DC
:100018000CEF04F0F26AFC6A8A0E0F01016F600EA1
:10002800026F080E056F010E066F550E076F6ECF33
:100038002FF0E00E2F1603E1008700B7FED7800EE1
:100048006F6E6E50E00B800AFCE1BAEC02F0200EF5
:10005800706E896A0F015D6BF80E5C17D00E9216F0
:10006800939C480EB96E7C6A8A0E7B6E260EBA6E19
:10007800900EA66E060EF66E080EF76E09000D0EAF
:10008800F51805E10900600EF51801E18980400EB8
:100098008B6E800E946E0E01435108E1445106E1C7
:1000A800070E436F910E446F010E456FF869C00E3D
:1000B800F96FFC69E00EFD6F8A0EE06FE16BE46B8F
:1000C800E56BE86BE96BEC6BED6BF06BF16BF46B6C
:1000D800F56B6F6A6ECF2FF0E00E2F16FBE1040070
:1000E800A2EC01F079EC00F0FAD71B0E266E57EC63
:1000F80002F0D8A01200200E1B1803E18A0E1C186B
:10010800D8A4A1D089B61DD02E6A2E501E0FD96E44
:10011800DA6A0F50600FE16EE26ADFCFE7FF0F2A5D
:100128002E2A070E2E64F1D7400E0F1801E09ED03C
:100138005EEC01F00F6A0E6A400E0926000E0A22D4
:1001480095D08DEC02F092D0010E136E146E015012
:100158001F1809E10250201806E10350211803E195
:1001680004502218D8A482D0550E146E7FD0020EE7
:10017800136E06C014F005C015F078D0040E136E87
:100188001EEC02F073D0050E136EF00E211807E175
:1001980089861F50076E030E2014086E67D0200E44
:1001A800211864E0300E211861E0C00E1F14096E9A
:1001B80020500A6E09501F5C0E6E0EC00FF056D00C
:1001C800060E136E5EEC01F0899650D0F00E2118E1
:1001D8001DE12E6A2E501F242C6E000E20202D6E3D
:1001E8002DC02CF02D6A2C50756E1F502E24746E65
:1001F8007F6A7F8000F02E50130FD96EDA6A73CFB2
:10020800DFFF2E2A070E2E64E5D730D01FC0F6FF79
:1002180020C0F7FF21C0F8FF2E6A09002E50130FE7
:10022800D96EDA6AF5CFDFFF2E2A070E2E64F5D7CE
:100238001DD0080E136E1AD0090E136EE1EC01F0F2
:1002480015D0136A13D01E50010A01E17DD7030AA5
:100258008EE0060A93E0010A96E0030AB1E0010A7B
:10026800B5E00F0AE6E0010AE7E0EBD78A0E1C18B2
:100278001B1005E11E0403E1550E141804E1100ECD
:10028800266EDBEC02F08A0E1C181B10D8A4120094
:10029800080E1E18D8A412000A0E2D6EBE0E2C6E63
:1002A800790EE82EFED72C2EFCD72D2EFAD700F08B
:1002B800FF001200F86A0AC0F7FF09C0F6FF276AB4
:1002C80009002750A00FD96EDA6AF5CFDFFF272A79
:1002D8003F0E2764F5D70EC027F00BD02750600FCC
:1002E800D96EDA6A2750A00FE16EE26ADFCFE7FF26
:1002F800272A0F50275CF2E3F86A0AC0F7FF09C003
:10030800F6FF940E7F6EB50E07EC03F00A00F86A4C
:100318000AC0F7FF09C0F6FF276A2750A00FD96E59
:10032800DA6ADF50F56E0D00272A3F0E2764F5D7ED
:100338000A00840E7F6EB50E07EF03F00B06D8A0F7
:100348000C060B500C1005E189BA02D0898A01D03D
:10035800899AA4AA12007ACF27F02BD0300EF66E15
:10036800100EF76EF86A286A0900F55006EC00F0DE
:10037800282A2F0E2864F8D7B00EF66E120EF76EE4
:10038800F86A286A0900F55006EC00F0282A1F0EC2
:100398002864F8D7200EF66E130EF76EF86A286AEE
:1003A8000900F55006EC00F0282A5F0E2864F8D7FB
:1003B8005F0C2750670AD2E01200F66A080EF76E43
:1003C800F86A0D6A09000D50A00FD96EDA6AF5CFE8
:1003D800DFFF0D2A3F0E0D64F5D70D0E0001A66F45
:1003E800600EA76FF66A080EF76EF86A940E7F6EB5
:1003F800B50E07EC03F03F0EF66E080EF76EF86ABE
:100408003F0E0D6E0D50A00FD96EDA6ADF50F56EF3
:100418000C000DC027F03F0E271606E10400840EDD
:100428007F6EB50E07EC03F00A000D5001E11200D3
:100438000D06E8D789822A6A200E296E0400F86A18
:1004480029C027F02AC028F0D89028322732D8901F
:10045800283227322750F76E2940E842C00BF66E43
:10046800940E7F6EB50E07EC03F0294A2A2A020E75
:100478002A5CE4E38994296A2A6A2AC075FF29C09C
:1004880074FF7368040E7F6EB50E07EC03F07F806F
:1004980000F0732801E08984294A2A2A040E2A5C7C
:1004A800ECE38992120060AE32D06250E00B61CF6B
:1004B80027F0286A27C028F0276A27122650D96E05
:1004C800DA6A27C0DEFF28C0DDFF2650D96EDA6A57
:1004D800020ED92665500F0BDF6E660E296E0F0EC1
:1004E8002A6E2B6A29C0D9FF2AC0DAFF26502B248E
:1004F800E16EE26A030EE126DFCFE7FF294A2A2AE6
:100508002B2A070E2B64EED7609ED880070CD89054
:100518001200296A29500724276E000E0820286E29
:1005280028C027F0286A2750756E29500724746E52
:1005380029501E0FD96EDA6ADF50736E040E7F6E73
:10054800B50E07EC03F07F8000F029501E0FD96E1E
:10055800DA6A7350DE1801E08984292A070E2964B3
:10056800D9D7080E0726000E0822000CFE0EF66EDC
:10057800F7683F0EF86E0900F550E00B056E0900AC
:10058800F5CF06F0070EF66EF76A200EF86E0A0031
:10059800040ED8900136023603360436E82EF9D711
:1005A800F5500F0B0112F628F2E1F86A1200060E58
:1005B800276E0F0E286E296A26502924D96EDA6A0A
:1005C800030ED92627C0E1FF28C0E2FFDFCFE7FFEF
:1005D800274A282A292A070E2964EED70F010087FF
:1005E800070C060EF66E080EF76E09000D0EF518CC
:1005F80006E10900600EF51802E100EF04F00EECC8
:1006080000F000EF00F0266EF29EB50E261804E00A
:10061800030ED36E0300FED7550E7E6EAA0E7E6EB5
:100628007F827FB2FED77F94120000EE60F0800ECA
:10063800EE6AE806FDE100EE01F0250EEE6AE80636
:0C064800FDE1000EF86E0001F5EF02F07D
:020000040020DA
:080000000B04050D02060E09B8
:020000040030CA
:0E00000011127F7CFF8881FF0FC00FE00F40C0
:00000001FF
