:0408000029EF04F0E8
:060808001582D8EF04F098
:100818001580D8CF01F0E8CF02F0E0CF03F09EB00A
:100828009DA00BD09E900B0ECF6EDC0ECE6E1428C2
:100838000F0B146E145001E1897203C0E0FF02C06F
:10084800E8FF01C0D8FF15901000D0EF04F00C6A43
:100858000D6A0E6A0F6A800E6F6E6E50E00B800A8A
:10086800FCE1200EF86EF76A070EF66E0A00040E19
:10087800D8900C360D360E360F36E82EF9D7F550CF
:100888000F0B0C12F628F2E10F015D6BF80E5C17E6
:10089800896A8A6A400E8B6E926A936A800E946E99
:1008A800070E0E01436F910E446F010E456F8A0EBD
:1008B800E06FE16B8A0EE46F200EE56FF869FC6962
:1008C800E00EF96FFD6F8A0E0F01016F600E026F67
:1008D800080E056F020E066F550E076F0B0ECF6ED2
:1008E800DC0ECE6E960ED56E310ECD6E300EB16E1C
:1008F800B36AB26A200E706E6F6AD08E9D809F9028
:10090800E00EF26EA1A206D0A192B190B36AB26ACB
:10091800F30E891660AEF6D765CF11F0660E126E2B
:100928000F0E136EB18060A002D0898401D0898631
:100938000F0E1116080E116401D0116E115012E03D
:10094800106A0DD012C0D9FF13C0DAFF1050040F7F
:10095800E16EE26ADFCFE7FF124A132A102A11502C
:10096800105CF0E3609E89A6CDD704040EE10C501C
:1009780005180BE10D50061808E10E50071805E19F
:100988000F50081802E10EEF00F0020E0418BAE149
:10099800897A0F010087B6D7146A136A126A15900C
:1009A800159200012BEF04F0F2B4F2AA02D0F294EF
:0609B80089701592110088
:0200000400F00A
:1000000008090A0B0C0D0E0F000102030405060778
:00000001FF
